{
  "contractName": "OnlineMarket",
  "abi": [
    {
      "constant": true,
      "inputs": [],
      "name": "totalproducts",
      "outputs": [
        {
          "name": "",
          "type": "uint256"
        }
      ],
      "payable": false,
      "stateMutability": "view",
      "type": "function",
      "signature": "0x0f09935d"
    },
    {
      "constant": true,
      "inputs": [
        {
          "name": "",
          "type": "uint256"
        }
      ],
      "name": "products",
      "outputs": [
        {
          "name": "productName",
          "type": "string"
        },
        {
          "name": "price",
          "type": "uint256"
        },
        {
          "name": "owner",
          "type": "address"
        },
        {
          "name": "status",
          "type": "uint8"
        }
      ],
      "payable": false,
      "stateMutability": "view",
      "type": "function",
      "signature": "0x7acc0b20"
    },
    {
      "constant": true,
      "inputs": [],
      "name": "sold_products",
      "outputs": [
        {
          "name": "",
          "type": "uint256"
        }
      ],
      "payable": false,
      "stateMutability": "view",
      "type": "function",
      "signature": "0x8c18d9af"
    },
    {
      "constant": true,
      "inputs": [],
      "name": "totalprice",
      "outputs": [
        {
          "name": "",
          "type": "uint256"
        }
      ],
      "payable": false,
      "stateMutability": "view",
      "type": "function",
      "signature": "0xeb02a175"
    },
    {
      "anonymous": false,
      "inputs": [
        {
          "indexed": false,
          "name": "pID",
          "type": "uint256"
        },
        {
          "indexed": false,
          "name": "owner",
          "type": "address"
        },
        {
          "indexed": false,
          "name": "state",
          "type": "uint8"
        }
      ],
      "name": "ProductState",
      "type": "event",
      "signature": "0x9bea53097e03da5d101f4d0ea12caa2150b575758df9298016e074c981bd1d6d"
    },
    {
      "constant": false,
      "inputs": [
        {
          "name": "pID_",
          "type": "uint256"
        },
        {
          "name": "pName_",
          "type": "string"
        },
        {
          "name": "price_",
          "type": "uint256"
        }
      ],
      "name": "addProduct",
      "outputs": [],
      "payable": false,
      "stateMutability": "nonpayable",
      "type": "function",
      "signature": "0x4268ff2d"
    },
    {
      "constant": true,
      "inputs": [
        {
          "name": "pID_",
          "type": "uint256"
        }
      ],
      "name": "getProduct",
      "outputs": [
        {
          "name": "",
          "type": "string"
        },
        {
          "name": "",
          "type": "uint256"
        }
      ],
      "payable": false,
      "stateMutability": "view",
      "type": "function",
      "signature": "0xb9db15b4"
    },
    {
      "constant": false,
      "inputs": [
        {
          "name": "pID_",
          "type": "uint256"
        }
      ],
      "name": "buyProduct",
      "outputs": [],
      "payable": false,
      "stateMutability": "nonpayable",
      "type": "function",
      "signature": "0x8642269e"
    },
    {
      "constant": true,
      "inputs": [],
      "name": "getTotalProducts",
      "outputs": [
        {
          "name": "",
          "type": "uint256"
        }
      ],
      "payable": false,
      "stateMutability": "view",
      "type": "function",
      "signature": "0x570aea8a"
    },
    {
      "constant": false,
      "inputs": [
        {
          "name": "num",
          "type": "uint256"
        }
      ],
      "name": "set_total_products",
      "outputs": [],
      "payable": false,
      "stateMutability": "nonpayable",
      "type": "function",
      "signature": "0x445cb785"
    },
    {
      "constant": true,
      "inputs": [],
      "name": "getAveragePrice",
      "outputs": [
        {
          "name": "",
          "type": "uint256"
        }
      ],
      "payable": false,
      "stateMutability": "view",
      "type": "function",
      "signature": "0xa6be46aa"
    },
    {
      "constant": false,
      "inputs": [
        {
          "name": "val",
          "type": "uint256"
        }
      ],
      "name": "setSoldProducts",
      "outputs": [],
      "payable": false,
      "stateMutability": "nonpayable",
      "type": "function",
      "signature": "0xa417b7ec"
    },
    {
      "constant": true,
      "inputs": [],
      "name": "getSoldProducts",
      "outputs": [
        {
          "name": "",
          "type": "uint256"
        }
      ],
      "payable": false,
      "stateMutability": "view",
      "type": "function",
      "signature": "0x2def030e"
    },
    {
      "constant": true,
      "inputs": [],
      "name": "getmap",
      "outputs": [
        {
          "name": "",
          "type": "string[]"
        },
        {
          "name": "",
          "type": "uint256[]"
        }
      ],
      "payable": false,
      "stateMutability": "view",
      "type": "function",
      "signature": "0xa0d4bade"
    }
  ],
  "bytecode": "0x608060405234801561001057600080fd5b50610e57806100206000396000f3fe6080604052600436106100c5576000357c0100000000000000000000000000000000000000000000000000000000900463ffffffff1680630f09935d146100ca5780632def030e146100f55780634268ff2d14610120578063445cb78514610149578063570aea8a146101725780637acc0b201461019d5780638642269e146101dd5780638c18d9af14610206578063a0d4bade14610231578063a417b7ec1461025d578063a6be46aa14610286578063b9db15b4146102b1578063eb02a175146102ef575b600080fd5b3480156100d657600080fd5b506100df61031a565b6040516100ec9190610c6c565b60405180910390f35b34801561010157600080fd5b5061010a610320565b6040516101179190610c6c565b60405180910390f35b34801561012c57600080fd5b50610147600480360361014291908101906109f0565b610329565b005b34801561015557600080fd5b50610170600480360361016b91908101906109c7565b61048d565b005b34801561017e57600080fd5b50610187610497565b6040516101949190610c6c565b60405180910390f35b3480156101a957600080fd5b506101c460048036036101bf91908101906109c7565b6104a1565b6040516101d49493929190610c20565b60405180910390f35b3480156101e957600080fd5b5061020460048036036101ff91908101906109c7565b610596565b005b34801561021257600080fd5b5061021b6105c9565b6040516102289190610c6c565b60405180910390f35b34801561023d57600080fd5b506102466105cf565b604051610254929190610bb9565b60405180910390f35b34801561026957600080fd5b50610284600480360361027f91908101906109c7565b6107bb565b005b34801561029257600080fd5b5061029b6107c5565b6040516102a89190610c6c565b60405180910390f35b3480156102bd57600080fd5b506102d860048036036102d391908101906109c7565b6107dc565b6040516102e6929190610bf0565b60405180910390f35b3480156102fb57600080fd5b506103046108b2565b6040516103119190610c6c565b60405180910390f35b60025481565b60008054905090565b336003600085815260200190815260200160002060020160006101000a81548173ffffffffffffffffffffffffffffffffffffffff021916908373ffffffffffffffffffffffffffffffffffffffff16021790555060016003600085815260200190815260200160002060020160146101000a81548160ff021916908360ff160217905550816003600085815260200190815260200160002060000190805190602001906103d89291906108b8565b508060036000858152602001908152602001600020600101819055507f9bea53097e03da5d101f4d0ea12caa2150b575758df9298016e074c981bd1d6d836003600086815260200190815260200160002060020160009054906101000a900473ffffffffffffffffffffffffffffffffffffffff166003600087815260200190815260200160002060020160149054906101000a900460ff1660405161048093929190610c87565b60405180910390a1505050565b8060028190555050565b6000600254905090565b6003602052806000526040600020600091509050806000018054600181600116156101000203166002900480601f01602080910402602001604051908101604052809291908181526020018280546001816001161561010002031660029004801561054d5780601f106105225761010080835404028352916020019161054d565b820191906000526020600020905b81548152906001019060200180831161053057829003601f168201915b5050505050908060010154908060020160009054906101000a900473ffffffffffffffffffffffffffffffffffffffff16908060020160149054906101000a900460ff16905084565b60006003600083815260200190815260200160002060020160146101000a81548160ff021916908360ff16021790555050565b60005481565b6060806000606060025460405190808252806020026020018201604052801561060c57816020015b60608152602001906001900390816105f75790505b50905060606002546040519080825280602002602001820160405280156106425781602001602082028038833980820191505090505b5090506000600190505b6001600254018160ff1610156107ad576001600360008360ff16815260200190815260200160002060020160149054906101000a900460ff1660ff16141561079857600360008260ff1681526020019081526020016000206000018054600181600116156101000203166002900480601f01602080910402602001604051908101604052809291908181526020018280546001816001161561010002031660029004801561073b5780601f106107105761010080835404028352916020019161073b565b820191906000526020600020905b81548152906001019060200180831161071e57829003601f168201915b5050505050838260ff1681518110151561075157fe5b90602001906020020181905250600360008260ff16815260200190815260200160002060010154828260ff1681518110151561078957fe5b90602001906020020181815250505b8380600101945050808060010191505061064c565b508181945094505050509091565b8060008190555050565b60006002546001548115156107d657fe5b04905090565b60606000600360008481526020019081526020016000206000016003600085815260200190815260200160002060010154818054600181600116156101000203166002900480601f0160208091040260200160405190810160405280929190818152602001828054600181600116156101000203166002900480156108a25780601f10610877576101008083540402835291602001916108a2565b820191906000526020600020905b81548152906001019060200180831161088557829003601f168201915b5050505050915091509150915091565b60015481565b828054600181600116156101000203166002900490600052602060002090601f016020900481019282601f106108f957805160ff1916838001178555610927565b82800160010185558215610927579182015b8281111561092657825182559160200191906001019061090b565b5b5090506109349190610938565b5090565b61095a91905b8082111561095657600081600090555060010161093e565b5090565b90565b600082601f830112151561097057600080fd5b813561098361097e82610ceb565b610cbe565b9150808252602083016020830185838301111561099f57600080fd5b6109aa838284610dca565b50505092915050565b60006109bf8235610dc0565b905092915050565b6000602082840312156109d957600080fd5b60006109e7848285016109b3565b91505092915050565b600080600060608486031215610a0557600080fd5b6000610a13868287016109b3565b935050602084013567ffffffffffffffff811115610a3057600080fd5b610a3c8682870161095d565b9250506040610a4d868287016109b3565b9150509250925092565b610a6081610d77565b82525050565b6000610a7182610d31565b80845260208401935083602082028501610a8a85610d17565b60005b84811015610ac3578383038852610aa5838351610b65565b9250610ab082610d5d565b9150602088019750600181019050610a8d565b508196508694505050505092915050565b6000610adf82610d3c565b808452602084019350610af183610d24565b60005b82811015610b2357610b07868351610b9b565b610b1082610d6a565b9150602086019550600181019050610af4565b50849250505092915050565b6000610b3a82610d52565b808452610b4e816020860160208601610dd9565b610b5781610e0c565b602085010191505092915050565b6000610b7082610d47565b808452610b84816020860160208601610dd9565b610b8d81610e0c565b602085010191505092915050565b610ba481610da9565b82525050565b610bb381610db3565b82525050565b60006040820190508181036000830152610bd38185610a66565b90508181036020830152610be78184610ad4565b90509392505050565b60006040820190508181036000830152610c0a8185610b2f565b9050610c196020830184610b9b565b9392505050565b60006080820190508181036000830152610c3a8187610b65565b9050610c496020830186610b9b565b610c566040830185610a57565b610c636060830184610baa565b95945050505050565b6000602082019050610c816000830184610b9b565b92915050565b6000606082019050610c9c6000830186610b9b565b610ca96020830185610a57565b610cb66040830184610baa565b949350505050565b6000604051905081810181811067ffffffffffffffff82111715610ce157600080fd5b8060405250919050565b600067ffffffffffffffff821115610d0257600080fd5b601f19601f8301169050602081019050919050565b6000602082019050919050565b6000602082019050919050565b600081519050919050565b600081519050919050565b600081519050919050565b600081519050919050565b6000602082019050919050565b6000602082019050919050565b6000610d8282610d89565b9050919050565b600073ffffffffffffffffffffffffffffffffffffffff82169050919050565b6000819050919050565b600060ff82169050919050565b6000819050919050565b82818337600083830152505050565b60005b83811015610df7578082015181840152602081019050610ddc565b83811115610e06576000848401525b50505050565b6000601f19601f830116905091905056fea265627a7a7230582056307d514727aa1ac547e39eb78ec6f22b1a1d531634c45b07ca6e9e5c4bfd6d6c6578706572696d656e74616cf50037",
  "source": "pragma experimental ABIEncoderV2;\npragma solidity ^0.5.0;\n\ncontract OnlineMarket\n{   \n\n    uint public sold_products;\n    uint public totalprice;\n    uint public totalproducts;\n\n    struct Product\n    {\n       \n        string productName;\n        uint price;\n        address owner;\n        uint8 status;\n    }\n   \n    \n    mapping(uint => Product) public products;\n    \n    event ProductState(uint pID, address owner, uint8 state);\n\n    //this function will add product with owner as sender and \"1\" represent item is for sale\n    function addProduct(uint pID_, string memory pName_, uint price_) public\n    {\n        products[pID_].owner = msg.sender;\n        products[pID_].status = 1;\n        products[pID_].productName = pName_;\n        products[pID_].price = price_;\n\n        emit ProductState(pID_, products[pID_].owner, products[pID_].status);\n    }\n\n    //this function is used to get the product with the product id\n    \n    function getProduct(uint pID_) public view returns(string memory, uint)\n    {\n        return (products[pID_].productName, products[pID_].price);\n     \n    }\n\n    //this function allow user to buy a product and sets status as 0 to represent sold\n    function buyProduct(uint pID_) public\n    {\n        products[pID_].status = 0;\n\n    }\n    \n  //this function retruns total number of products\n \n    function getTotalProducts()public view returns(uint)\n    {\n        return(totalproducts);\n    }\n\n    //setter for total products\n    function set_total_products(uint num)public\n    {\n        totalproducts = num;\n    }\n\n    //this function returns average price of products\n    function getAveragePrice() public view returns(uint)\n    {\n        return(totalprice/totalproducts);\n    }\n  \n    //this function will set sold products\n    function setSoldProducts(uint val)public\n    {\n        sold_products = val;\n    }\n    \n    //this function will return count of sold products\n    function getSoldProducts() public view returns(uint)\n    {\n        return(sold_products);\n    }\n\n    function getmap() public view returns(string[] memory,uint[] memory)\n    {\n        uint counter;\n        string[] memory pnames = new string[](totalproducts);\n        uint[] memory pids = new uint[](totalproducts);\n        for(uint8 i = 1; i < totalproducts+1 ; i++)\n        {\n            if(products[i].status == 1)\n            {\n                pnames[i] = products[i].productName;\n                pids[i] = products[i].price;\n            }\n            counter++;\n        }\n        return(pnames,pids);\n    }\n\n}",
  "sourcePath": "/home/priya/workspace/assignment/contracts/OnlineMarket.sol",
  "compiler": {
    "name": "solc",
    "version": "0.5.0+commit.1d4f565a.Emscripten.clang"
  },
  "schemaVersion": "3.0.1",
  "updatedAt": "2019-02-12T01:51:17.854Z",
  "devdoc": {
    "methods": {}
  },
  "userdoc": {
    "methods": {}
  }
}